:020000040800F2
:10000000B0170720A1020008179300087F320008EC
:10001000AD02000839050008ADA700080000000087
:100020000000000000000000000000004BA10008DC
:10003000F5060008000000009D960008EDA10008EC
:10004000BB020008BB020008BB020008BB0200089C
:10005000BB020008BB020008BB020008BB0200088C
:10006000BB020008BB020008BB020008BB0200087C
:10007000BB020008BB020008BB020008BB0200086C
:10008000BB020008BB020008BB020008BB0200085C
:10009000BB020008BB020008BB020008BB0200084C
:1000A000BB020008BB020008BB020008BB0200083C
:1000B000BB020008BB020008BB020008BB0200082C
:1000C000BB020008BB020008BB020008BB0200081C
:1000D000BB02000835A70008BB020008BB020008ED
:1000E000BB020008BB020008BB020008BB020008FC
:1000F000BB020008BB020008BB020008BB020008EC
:10010000BB020008BB020008BB020008BB020008DB
:10011000BB020008BB020008BB020008BB020008CB
:10012000BB020008BB020008BB020008C5050008AE
:10013000BB020008BB020008BB020008BB020008AB
:10014000BB020008BB020008BB020008BB0200089B
:100150005D060008BB020008BB020008BB020008E5
:10016000BB020008BB020008BB020008BB0200087B
:10017000BB020008BB020008BB0200080000000030
:10018000BB020008BB020008BB020008BB0200085B
:10019000BB020008BB020008BB020008BB0200084B
:1001A000BB020008BB020008BB020008BB0200083B
:1001B000BB020008BB020008BB020008BB0200082B
:1001C000BB020008BB02000800000000BB020008E0
:1001D000BB020008BB020008BB020008BB0200080B
:1001E000BB020008BB020008BB020008BB020008FB
:1001F000BB020008BB02000800F002F800F041F862
:100200000AA090E8000C82448344AAF10107DA4571
:1002100001D100F036F8AFF2090EBAE80F0013F082
:10022000010F18BFFB1A43F00103184794FB0000AD
:10023000B4FB0000103A24BF78C878C1FAD852073E
:1002400024BF30C830C144BF04680C607047000050
:100250000023002400250026103A28BF78C1FBD8CF
:10026000520728BF30C148BF0B607047782900F0A3
:100270007980002070471FB50BF08AF91FBD10B5BB
:1002800010BD00F027F91146FFF7F5FF0AF06EFDEB
:1002900000F045F903B4FFF7F2FF03BC0AF0A2FC3B
:1002A0000948804709480047FEE7FEE7FEE7FEE70A
:1002B000FEE7FEE7FEE7FEE7FEE7FEE70448054946
:1002C000054A064B70470000F1A10008F90100083B
:1002D000B0110720B0170720B0130720B013072074
:1002E000704700000FB4044910B503AA029800F04B
:1002F000C3F810BC5DF814FB100002202DE9F0419A
:100300000E460446002020622046E168884730B34C
:10031000252805D0D4E901219047206A401CF2E746
:10032000E168204600278847050018D0A5F1410064
:10033000192802D820354FF4006732462946204656
:100340002760FFF793FF40B1012804D0F61D26F087
:1003500007060836D8E7361DD6E72846DAE7206ACA
:10036000BDE8F08170B504460D4621461068AFF334
:1003700000802188090502D50F4A7A4402E00E4A1E
:100380007A440E32002104F1240305E000F00F0648
:100390000009965D5E54491C0028F7D1207800239F
:1003A000000704D5702D02D009B102231132204676
:1003B000BDE8704000F006B81AFA000070477047B8
:1003C000704770472DE9F0470D469946924604461E
:1003D00000F124080168880604D5E06921F01001C5
:1003E000216000E00120A84201DD471B00E000275A
:1003F000A1697A1902EB0900081AA0612078C006E9
:1004000002D42046AFF30080002608E0D4E90121A1
:100410001AF806009047206A401C761C20624E4560
:10042000F4DB2078C0060AD52046AFF3008006E052
:10043000D4E9012130209047206A401C2062381EF8
:10044000A7F10107F4DC07E0D4E9012118F8050061
:100450009047206A401C2062281EA5F10105F3DCAC
:100460002046AFF300802078000602D50220BDE8C8
:10047000F0870120FBE70000074B70B50D467B4479
:1004800000F011F80446284600F020F810B14FF0B3
:10049000FF3070BD204670BD57A8000001694A1C9E
:1004A00002610878704700B58FB0CDE901310021B5
:1004B000059105497944CDE9031011466846FFF7D7
:1004C0001DFF0FB000BD0000E5FFFFFF007B00F047
:1004D00080007047754600F02BF8AE46050069466F
:1004E000534620F00700854618B020B5FFF7E6FE1A
:1004F000BDE820404FF000064FF000074FF0000825
:100500004FF0000B21F00701AC46ACE8C009ACE8A5
:10051000C009ACE8C009ACE8C0098D46704710B509
:100520000446AFF300802046BDE81040FFF7B2BE9E
:10053000004870474C110720FEE7000070B4BFF37D
:100540004F8FBFF36F8F1A4900200860194D29683B
:1005500041F400312960BFF34F8FBFF36F8F16490D
:100560000860BFF34F8F081F006843F6FF76134AF9
:10057000C0F34E3CC0F3C90406EA4C11204641EAE0
:1005800080731360401EFAD2BCF1010CF4D2BFF3A9
:100590004F8F286840F480302860BFF34F8FBFF33F
:1005A0006F8F0748016841F00401016070BC70471B
:1005B00050EF00E014ED00E084ED00E060EF00E0BB
:1005C0009CEF00E01B4830B4DFF86CC01B4B0068A8
:1005D0001B4C1C4A604504D91B49096801F00061A5
:1005E00005E098421AD91949096801F0006100290B
:1005F00004BF30BC70474FF00061604588BF1448AD
:1006000003D8984288BF13480FD901601248006888
:10061000002804BF30BC704730BC0047A0428CBFEC
:100620005168116801F00061E1E7A0428CBFD16020
:100630009160EBE7D814022058640240B860024091
:1006400058600240006002400464024000640240BE
:100650000C640240086402402C0002201B4830B4A5
:10066000DFF86CC01B4B00681B4C1C4A604504D96A
:100670001B49096801F4006105E098421AD919493B
:10068000096801F40061002904BF30BC70474FF4D1
:100690000061604588BF144803D8984288BF13485A
:1006A0000FD9016012484068002804BF30BC704771
:1006B00030BC0047A0428CBF5168116801F4006152
:1006C000E1E7A0428CBFD1609160EBE738150220D2
:1006D00058640240B8600240586002400060024026
:1006E00004640240006402400C640240086402405A
:1006F0002C00022070470000B3F5804F30B418BFC3
:100700006FF0704104D040F8221030BC00207047D8
:1007100050F82230DFF824C08D8903EA0C03D1E9B8
:1007200000C44CEA041C8C688969240244EA05442C
:100730004CEA040C4CEA01011943E4E70000F0CF55
:1007400070B4D1F800C050F82C201B4BD1E90356EF
:100750001A40D1E9014335431C432C434D692C43D6
:100760008D692C43CD692C430D6A2C434D6A2C4373
:100770008D6A2C43CD6A2C430D6B2C438D6B2C431F
:100780004D6B2C432243082B08BF42F0400240F837
:100790002C200A6BB2F5801F05D10A684AB10268A5
:1007A00042F4801202600A681AB10268496B114370
:1007B000016070BC002070478004C0FF00EB820223
:1007C00070B453684FF07E46D1E900C48D8903F0C0
:1007D00040434CEA041C8C68240244EA05440D8A18
:1007E0004CEA0404DFF834C00CEB05552C430D7DB6
:1007F00006EB05652C438D692C4323435360026847
:1008000012F4801F07D04268098A22F470020CEBB0
:1008100001511143416070BC002070470000F0FF9F
:100820004DF8044DD1E901320C681343D1E903C2FC
:100830004CEA02021A434B6913438A69012C04688B
:1008400043EA020CCB690A6A496A08D04CEA0303FE
:100850001A4311436FF30E04214301600BE024F4AB
:10086000F8441A4321430A43416802606FF30E01C2
:100870004CEA010141605DF8044B00207047426979
:1008800042EA4101416100207047F8B5144605462F
:10089000D1E900026FF01F0310438A68C96803EBB7
:1008A000421242EA412108430090286100F0D8FA40
:1008B0000646A86910F0200F0ED0B4F1FF3F07D014
:1008C00024B100F0CDFA801BA04201D90320F8BD6D
:1008D000A86910F0200FF0D10020F8BD2DE9F0013B
:1008E000D1F804C06FF00F050B682C015B1E05EBFF
:1008F0000C1C43EA0C03D1F808C04FEA0428270374
:1009000004EB0C2C43EA0C050B8A2604CC68012A64
:10091000826808EB034C8B8A097E07EB035306EBD6
:1009200001610DD0361306EB04342C4344EA0C0C61
:100930004CEA0303194302F070421143816012E054
:10094000240322F47042A4F58054234322F470025D
:100950001A43C36845EA0C0C826003F070434CEA0A
:1009600001011943C160BDE8F0010020704700009B
:1009700002480068C0F300407047000014ED00E03A
:1009800070B484684FF0000C039D802C13D090F855
:100990003440012C02BF022070BC7047012480F853
:1009A000344090F83540012C18BF4FF0020C08D0AD
:1009B00070BC604670474FF4807141654FF0010C88
:1009C000F6E7022480F835400468266846F480265D
:1009D00026600468236103685D608368402B0368B8
:1009E00003BF9A600268D16099601CBF0168CA6049
:1009F0000068016841F001010160D9E790F8351005
:100A0000022903D08021416501207047052180F82B
:100A100035100068016821F0010101600020704775
:100A2000002804BF0120704790F83510022904BF48
:100A30000220704701680A6822F001020A6001681A
:100A40004FF0000CC1F800C00168C1F804C0016893
:100A5000C1F808C00168C1F80CC00168C1F810C035
:100A600021210268516101680C4BCAB2103A6FF340
:100A70000901A3FB02320A4B1209032A9B5CC365DE
:100A800088BF091D3F2281659A408A60C0F854C022
:100A900080F835C080F834C000207047ABAAAAAAFD
:100AA000B2B5000870B5044600F0DAF9002C05462E
:100AB00004BF012070BD0026022084F8346084F851
:100AC00035002068016821F001010160206800689C
:100AD00010F0010F0FD000F0C3F9401B052805D915
:100AE00020206065032084F8350070BD2068006810
:100AF00010F0010FEFD121680868404A1040D4E996
:100B000001231A43D4E9033C43EA0C031A43636903
:100B10001A43A3691A43E3691A43236A1A43104329
:100B2000626A042A03D1D4E90B231A4310430860F4
:100B3000236858694FF0010C20F00701606A0143F7
:100B4000042840D1A06AA269014352B1B2F5005F06
:100B50001CD000281CBF012802282CD0032826D036
:100B600031E020B1012807D002280AD02BE0E06A4A
:100B700010F0807F1FD126E0E06AB0F1C07F22D163
:100B800019E0E06A10F0807F15D11CE098B10128CF
:100B900008D002280FD0032804BFE06AB0F1C07F5C
:100BA00009D010E0E06A10F0807F04D10BE0E06A29
:100BB00010F0807F07D04FF04000606584F835C0AA
:100BC0004FF0010070BD596120680D4AC1B2A1F11A
:100BD00010016FF30900A2FB01210A4A4FEA11112B
:100BE0000329525CE26588BF001D3F21A06591404A
:100BF0008160666584F835C0002070BD3F8010E0DC
:100C0000ABAAAAAAB2B500082DE9F84FDFF83092D6
:100C10000022DFF828820F2709F1040A4FF0010EA5
:100C20000B680EFA02F52B40AB4240F00181D1F87F
:100C300004C0BCF1020F18BFBCF1120F15D14FEA6E
:100C4000D20C00EB8C0CDCF820604FEA42744FEAC7
:100C5000D46407FA04FB26EA0B06D1F810B00BFAAD
:100C600004F444EA0604CCF8204006684FEA420C3B
:100C700091F804B04FF003040BF0030B04FA0CF4EA
:100C80000BFA0CFB26EA04064BEA060606604E68E1
:100C9000012E18BF022E03D0112E18BF122E14D110
:100CA0008668D1F80CB026EA04060BFA0CFB4BEA76
:100CB00006068660466826EA05050E79C6F3001624
:100CC00006FA02F646EA05054560C56825EA040409
:100CD0008D6805FA0CFC4CEA040CC0F80CC0D1F885
:100CE00004C01CF0805F7CD0D8F800C04CF4804C6D
:100CF000C8F800C0D8F800C00CF4804CCDF800C093
:100D000022F0030C0CF1804505F59835D5F808C89C
:100D10004FEA82744FEA147407FA04F62CEA0606C6
:100D2000A0F1804CBCF5003C48D0A0F1804CBCF553
:100D3000013C08BF4FF0010C40D0A0F1804CBCF545
:100D4000023C08BF4FF0020C38D0A0F1804CBCF53B
:100D5000033C08BF4FF0030C30D0A0F1804CBCF531
:100D6000043C08BF4FF0040C28D0A0F1804CBCF527
:100D7000053C08BF4FF0050C20D0A0F1804CBCF51D
:100D8000063C08BF4FF0060C18D0A0F1804CBCF513
:100D9000073C08BF4FF0070C10D0A0F1804CBCF509
:100DA000083C08BF4FF0080C08D0A0F1804CBCF5FF
:100DB000093C0CBF4FF0090C4FF00A0C0CFA04FC74
:100DC0004CEA060CC5F808C8D9F800C04C682CEAF3
:100DD000030C14F4803F18BF4CEA030CC9F800C0A0
:100DE00000E025E0DAF800C04C682CEA030C14F4AB
:100DF000003F18BF4CEA030CCAF800C0114CD4F8ED
:100E000000C04D682CEA030C15F4801F18BF4CEA93
:100E1000030CC4F800C00C4CD4F800C04D682CEA98
:100E2000030C15F4001F18BF4CEA030CC4F800C0F3
:100E3000521C102AFFF4F4AEBDE8F88F443802408B
:100E4000003C0140083C01400C3C01400069084066
:100E500018BF01207047002A08BF0904816170474C
:100E60000148006870470000040002200248016841
:100E7000491C01607047000004000220074810B5BB
:100E8000016841F400710160052000F009FA0F20AB
:100E900000F006F800F0C4F9002010BD003C02404C
:100EA00010B5044607484FF47A720068B0FBF2F0C0
:100EB00001F0EAFF00222146501E00F0BFF9002099
:100EC00010BD0000000002202DE9F05F044690F8FC
:100ED000A000012804BF0220BDE8F09F01250220E8
:100EE00084F8A05084F8A10002EB820000EBC2005D
:100EF00004EB8003B1E8C11F3833A3E8C11F91E8B8
:100F0000C111203983E8C111204608F01DF920687D
:100F1000456284F8A150002084F8A000BDE8F09F4D
:100F2000002804BF0120704770B5044690F8A10066
:100F3000002520B9204684F8A05000F077F8022060
:100F400084F8A1002068816921F070418161D4E9B1
:100F500001010843D4E90312114301432068826967
:100F600011438161206882682F490A408260A08A0B
:100F7000020420688368D4F818C043EA0C031A43BB
:100F800082602068C2680A40C260A08B02042068A8
:100F9000C368D4F820C043EA0C031A43C260206837
:100FA00002690A400261A08C020420680369D4F837
:100FB00028C043EA0C031A430261206842691140C9
:100FC0004161A08D010420684269236B1A431143DB
:100FD000416194F83500020294F83600010420685B
:100FE000C36A03F07F43C3622068C36A114394F865
:100FF00034C043EA0C031943C1622068416B41F0DD
:10100000040141632068416B41F0020141632068A3
:10101000816941F001018161C4F8A450012084F884
:10102000A100002070BD000000F800F0354810B5A8
:1010300086B0016841F080610160006800F0806066
:1010400005903148016841F400010160016801F434
:1010500000010591016841F002010160016801F0A1
:1010600002010591016841F020010160016801F071
:1010700020010591016841F040010160016801F023
:1010800040010591016841F080010160016801F0B3
:1010900080010591016841F48071016000680324BA
:1010A000694600F480700590202000900120019096
:1010B000CDE902041548FFF7A7FD4FF480600090CA
:1010C0000220019000206946CDE902040E20049020
:1010D0000F48FFF799FD4FF40C6000900D486946EA
:1010E000FFF792FD4FF47E4000900B486946FFF7F2
:1010F0008BFD40F2F760009008486946FFF784FDD9
:1011000006B010BD443802403038024000040240AE
:101110000014024000180240001C0240002002405F
:1011200070B5044690F8A0008C46012804BF022048
:1011300070BD0125022084F8A05084F8A10003EBC3
:10114000830000EBC30004EB800000F13801C0F81D
:1011500038C0006E6044C1E90102C86A10441A46F2
:10116000C860204607F0F0FF2068456284F8A1506F
:10117000002084F8A00070BD70B5044690F8A0006F
:101180008C46012804BF022070BD0125022084F88E
:10119000A05084F8A10003EB830000EBC3000026FD
:1011A00004EB800000F138012046C1E9006CC1E980
:1011B0000262C1E90AC21A4607F0C6FF206845620A
:1011C00084F8A150002084F8A06070BD134A4178D3
:1011D0001160111D03780A1D002B04BF0020086058
:1011E0001AD043680B60017BC37A090741EA0361A7
:1011F000837A41EAC341437B41EA8341837B41EAED
:101200004341C37B41EA0341437A41EA0321037A24
:10121000007841EA430108431060704798ED00E010
:101220007047012200F01F0102FA01F1400980001D
:1012300000F1E020C0F8001170470000174B4DF896
:10124000044D1B68C3F30223C3F1070CBCF1040F68
:1012500088BF4FF0040C1C1D072C34BF0023DB1E7D
:10126000012404FA0CFCACF1010C0CEA01019940D8
:1012700004FA03F35B1E1A40114300284FEA0111E0
:10128000B8BF00F00F0000F1E020B4BF80F8141DDB
:1012900080F800145DF8044B704700000CED00E08E
:1012A000074A00F0070011684FF6FF03194041EAB2
:1012B000002040F0FD7040F080601060704700003A
:1012C0000CED00E01C4838B5016841F08051016028
:1012D00000681A4C00F080500090206840F4803084
:1012E0002060FFF7BDFD0546606810F4803F09D11E
:1012F000FFF7B6FD401BB0F57A7F14D8606810F494
:10130000803FF5D0206840F400302060FFF7A8FD52
:101310000546606810F4003F0BD1FFF7A1FD401BAC
:10132000B0F57A7F01D9032038BD606810F4003F22
:10133000F3D0002038BD000040380240007000406B
:101340002DE9F84F16468A460446FFF789FD834685
:1013500094F83800012804BF0220BDE8F88F012767
:1013600084F8387094F839004FF00008012818BF4D
:10137000022504D084F838802846BDE8F88FC4F8E8
:101380003C804FF0020984F83990002220215B460E
:101390002046009608F00AFB0500EBD100225146DA
:1013A000204608F07CF9DAF82400002818BF84F8F9
:1013B0003970DFD101225B4602212046009608F0F9
:1013C000F5FA0500D6D12068C0F80C9084F8397081
:1013D000D0E70000F8B50446FFF742FD002C0746B1
:1013E00004BF0120F8BD94F83800012804BF022092
:1013F000F8BD012684F8386094F83900002538B922
:1014000084F83850204600F045F841F288302064D6
:10141000206801686FF0FF03A26821F4F85103EB24
:10142000022211430160206C002220213B460090E3
:10143000204608F0BBFA010026D1E269E068237972
:101440001043226A42EA036202432068036823F0E1
:10145000D00323F07F431A430260D4E9050202431C
:1014600020684368DFF828C003EA0C03B4F810C012
:1014700043EA0C431A4342602068026842F00102CA
:101480000260E56384F8396084F838500846F8BD96
:10149000FEF8E0FF224830B587B0016841F0020154
:1014A0000160006800F0020005901E48016841F0EC
:1014B00002010160016801F002010591016841F03B
:1014C0002001016000680324174D694600F02000E8
:1014D000059040200090022001900120CDE90204F7
:1014E0000A2004902846FFF78FFB2102009100217B
:1014F000CDE902140D4C69462046FFF785FB042117
:1015000000910921284604916946FFF77DFBC02020
:10151000694600902046FFF777FB07B030BD00001A
:1015200038380240303802400004024000140240C3
:101530002DE9F84F15468A460446FFF791FC81468F
:101540002068816900F1200694F83820012A04BF40
:101550000220BDE8F88F012784F8387094F839200C
:101560004FF00008012A18BF022003D084F8388009
:10157000BDE8F88FC4F83C80BAF1000F35D02222C4
:1015800084F839200269521C62860269521C228644
:10159000C4F82CA0426922F0406242F080624261AD
:1015A00020688161608E90B101224B460621204661
:1015B000009508F0FBF9A8B93178E06A421CE262B4
:1015C0000170608E401E6086608E0028ECD1012282
:1015D0004B4602212046009508F0E8F910B9226830
:1015E0000221D16084F83970C0E7E06B40F0080058
:1015F000E0630120BAE72DE9F84F15468A46044614
:10160000FFF72EFC8146206894F8381000F1200680
:10161000012904BF0220BDE8F88F012784F8387043
:1016200094F839104FF00008012918BF022003D0A8
:1016300084F83880BDE8F88FC4F83C80BAF1000F18
:1016400031D0122184F839100169491C6185016982
:10165000491C2185C4F824A0416921F04061416101
:10166000608D90B101224B4604212046009508F080
:101670009DF9A8B9606A411C616200783070608D84
:10168000401E6085608D0028ECD101224B4602216E
:101690002046009508F08AF910B922680221D1602D
:1016A00084F83970C4E7E06B40F00800E063012083
:1016B000BEE70000F0B4494D0146464B0020DFF87C
:1016C00018C12E1F464F2C1D464AB1F5002F18D0C9
:1016D000B1F5801F1CBFF0BC7047216811F44001B8
:1016E00067D0B1F5800F69D0B1F5000F6BD0B1F5BF
:1016F000400F1CBFF0BC7047106810F4800F13D16E
:1017000064E0216811F4401111D0B1F5801F2FD091
:10171000B1F5001F57D0B1F5401F1CBFF0BC70479A
:10172000106810F4800F51D0F0BC6046704710680C
:1017300010F4800F05D1106800F03F00B3FBF0F00B
:1017400004E0106800F03F00BCFBF0F029682A6854
:10175000C1F30361C2F3881202FB00F0B0FBF1F0A9
:101760002168F0BCC1F30421491CB0FBF1F07047C3
:10177000106810F4800F05D1106800F03F00B3FB33
:10178000F0F004E0106800F03F00BCFBF0F03168BE
:101790003268C1F30361C2F3881202FB00F0B0FBB0
:1017A000F1F02168F0BC01F01F01491CB0FBF1F021
:1017B0007047106810F4800FC3D1BCE7106810F4B4
:1017C000800FDFD1D8E73846F0BC7047F0BC184630
:1017D000704700000024F40040787D018838024002
:1017E0000080BB00043802402DE9F84F0446007821
:1017F000DFF82C944FF0000B10F0010F5D4610D075
:10180000D9F8000020F40000C9F80000D9F8000061
:10181000616B0843C9F80000606B002808BF4FF0F7
:10182000010B2068FF4E10F4002F0FD03068E16BE1
:1018300020F4401008433060E06BB0F5801F08BF13
:101840004FF0010B02D0002808BF0125206810F4DA
:10185000801F0FD03068216C20F4400008433060B6
:10186000206CB0F5800F08BF4FF0010B02D00028AC
:1018700008BF0125206810F0807F18BF4FF0010BD2
:1018800010F0200F71D0E848016841F080510160EC
:101890000068DFF8988300F080500090D8F80000CE
:1018A00040F48070C8F80000FFF7DAFA0746D8F86D
:1018B000000010F4807F0AD1FFF7D2FAC01B642821
:1018C00000F23083D8F8000010F4807FF4D0DFF805
:1018D0006083D8F8000010F4407031D0218E01F4FC
:1018E000407181422CD0D8F80000D8F8001020F4C4
:1018F000407041F48031C8F80010D8F8001021F48D
:101900008031C8F80010C8F80000D8F8000010F0C6
:10191000010F15D0FFF7A4FA0746D8F8000010F021
:10192000020F08BF41F2883A0AD1FFF799FAC01BAB
:10193000504500F2F782D8F8000010F0020FF4D002
:10194000206B4FF4407181431CBFD9F8000020F494
:10195000F81000F0EE80C9F80000D8F80000218EE1
:10196000C1F30B010843C8F80000207810F0100FF5
:1019700007D0306820F0807030603068A16B084379
:101980003060208810F4804FAA4805D00168626E4C
:1019900021F4403111430160218811F4004F05D03A
:1019A0000168A26E21F4402111430160216811F405
:1019B000803F05D00168E26E21F4401111430160BF
:1019C000216811F4003F05D00168226F21F4400125
:1019D00011430160217811F0400F05D00168626C5D
:1019E00021F0030111430160217811F0800F05D02F
:1019F0000168A26C21F00C0111430160218811F4EF
:101A0000807F05D00168E26C21F030011143016054
:101A1000218811F4007F05D00168226D21F0C001FA
:101A200011430160218811F4806F05D00168626D57
:101A300021F4407111430160218811F4006F05D039
:101A40000168A26D21F4406111430160218811F405
:101A5000805F05D00168E26D21F4405111430160BF
:101A6000218811F4005F05D00168226E21F4404105
:101A700011430160216811F4800F05D00168A26F45
:101A800021F0806111430160216811F4001F0AD028
:101A90000168E26F21F0006111430160E16FB1F173
:101AA000006F08BF0125216811F0080F18BF01253C
:101AB00011F4802F05D00168626F21F0407111434D
:101AC0000160216811F4000F06D00168D4F880206D
:101AD00021F0805111430160216811F0806F06D020
:101AE0000168D4F8842021F000511143016020687E
:101AF00010F0006F06D03068D4F8881020F0007025
:101B000008433060206810F0805F06D03068D4F859
:101B10008C1020F0806008433060BBF1000F47F666
:101B2000C07A4FF440374FF070684FF0E0490ED163
:101B300009E0D9F8001020F4407020F0704021F442
:101B4000F811084307E72068B0F1007F67D13A48F1
:101B5000006820F0806138480160FFF781F9834612
:101B60003548006810F0006F0BD0FFF779F9A0EB53
:101B70000B00642800F2D6812F48006810F0006F37
:101B8000F3D1207810F0010F2C482DD0616B59BB98
:101B9000016897FAA7F201F44031B2FA82F2D1401B
:101BA000026898FAA8F39AFAAAFC02F07062B3FAF3
:101BB00083F3BCFA8CFCDA40636803FA0CF397FAFF
:101BC000A7FCBCFA8CFC01FA0CF1194398FAA8F3B3
:101BD000B3FA83F39A4099FAA9F30A43A168B3FAD6
:101BE00083F3994011430160216811F4002F03D061
:101BF000E26BB2F5801F06D011F4801F49D0216C32
:101C0000B1F5800F45D1016897FAA7F201F4403190
:101C1000B2FA82F2D140026802F0E04210E0A5E0A0
:101C2000083802408C3802404038024000700040C2
:101C30007038024090380240003802408438024038
:101C400099FAA9F39AFAAAFCB3FA83F3BCFA8CFCCA
:101C5000DA40636803FA0CF397FAA7FCBCFA8CFC31
:101C600001FA0CF198FAA8FC1943E368BCFA8CFC61
:101C700003FA0CF3194399FAA9F3B3FA83F39A40E0
:101C8000114301603168626A21F01F01521E114345
:101C90003160216811F0807F2ED0016898FAA8F297
:101CA00001F07061B2FA82F2D140026899FAA9F3A8
:101CB0009AFAAAFC02F0E042B3FA83F3BCFA8CFC75
:101CC000DA40636897FAA7FBBBFA8BFB03FA0CF3C5
:101CD000D4F810C00CFA0BFC43EA0C0398FAA8FCE9
:101CE000BCFA8CFC01FA0CF1194399FAA9F3B3FA86
:101CF00083F39A4011430160216811F0007F1CD0EA
:101D00009AFAAAF2616897FAA7F3B2FA82F2B3FAE2
:101D100083F301FA02F22169994098FAA8F311437A
:101D2000E268B3FA83F39A4099FAA9F31143A268DF
:101D3000B3FA83F39A40114301607F48006840F092
:101D400080617D480160FFF78BF883467A48006820
:101D500010F0006F0AD1FFF783F8A0EB0B006428A6
:101D60007DD87548006810F0006FF4D0002D77D052
:101D7000714D286820F080502860FFF771F8834685
:101D8000286810F0005F09D0FFF76AF8A0EB0B009D
:101D9000642864D8286810F0005FF5D12068DFF867
:101DA0009CC110F4002F01D0E16B21B110F4801F11
:101DB00038D0206CB0BBDCF8000097FAA7F100F433
:101DC0004030B1FA81F1C840DCF8001099FAA9F26C
:101DD0009AFAAAF301F0E041B2FA82F2B3FA83F37D
:101DE000D14062699A4097FAA7F3B3FA83F3984017
:101DF00098FAA8F31043A269B3FA83F39A40104308
:101E000099FAA9F2B2FA82F291400843CCF80000A4
:101E100030686FF0FF02A16A20F4F85002EB012154
:101E200008433060206810F4001F34D0E06FB0F138
:101E3000006F30D1DCF8000098FAA8F100F0706073
:101E4000B1FA81F1C840DCF8001099FAA9F29AFAC7
:101E5000AAF301F0E041B2FA82F2D14001E061E080
:101E600067E06269B3FA83F397FAA7FB9A40236AA3
:101E7000BBFA8BFB03FA0BF31A4398FAA8F3B3FAF5
:101E800083F39840104399FAA9F2B2FA82F2914092
:101E90000843CCF80000207810F0080F32D0DCF8AE
:101EA000000098FAA8F100F07060B1FA81F1C84022
:101EB000DCF8001097FAA7F29AFAAAF301F440317D
:101EC000B2FA82F2B3FA83F3D14062699A4097FA88
:101ED000A7F3B3FA83F39940114398FAA8F2B2FA40
:101EE00082F2904099FAA9F20843E169B2FA82F2CB
:101EF00091400843CCF800003068E16A20F440309B
:101F000008433060286840F080502860FEF7A8FF42
:101F10000446286810F0005F0BD1FEF7A1FF001BFC
:101F2000642802D90320BDE8F88F286810F0005F0C
:101F3000F3D00020BDE8F88F003802408838024016
:101F40002DE9F047DFF8688104460D46D8F8000017
:101F500000F00F00A8420CD2D8F8000020F00F00CB
:101F60002843C8F80000D8F8000000F00F00A8428D
:101F700070D120784F4F10F0020F05D03868A1685B
:101F800020F0F00008433860207810F0010F4ED0A8
:101F900060684949012820D00968022822D011F040
:101FA000020F57D0396821F0030108433860FEF76B
:101FB00057FF0646606841F28839012816D002288A
:101FC000386800F00C0021D0F8B1FEF749FF801B03
:101FD000484528D90320BDE8F087096811F4003F7F
:101FE000E0D137E011F0007FDCD133E0386800F059
:101FF0000C0004281BD0FEF733FF801B4845E9D8AE
:10200000386800F00C000428F5D110E008280ED044
:10201000FEF726FF801B4845DCD8386800F00C002E
:102020000828F5D103E0386810F00C0FCDD1D8F8AE
:10203000000000F00F00A8420FD9D8F8000020F0EF
:102040000F002843C8F80000D8F8000000F00F0087
:10205000A84202D00120BDE8F087207810F0040FDC
:1020600005D03868E16820F4E050084338602078F3
:1020700010F0080F06D03868216920F4604040EA6B
:10208000C100386000F04EF83968F02292FAA2F2EE
:1020900001F0F001B2FA82F2D140084A515CC84026
:1020A000074908600F20FEF7FBFE0020BDE8F0871F
:1020B000003C024008380240003802409AB500084F
:1020C0000000022008480949006809684FF4E052FE
:1020D00092FAA2F201F4E051B2FA82F2D140044A3B
:1020E000515CC840704700000000022008380240E0
:1020F000AAB5000808480949006809684FF4604219
:1021000092FAA2F201F46041B2FA82F2D140044A9A
:10211000515CC840704700000000022008380240AF
:10212000AAB500082148006810F00C01204808BF3B
:102130007047DFF880C0042904BF60467047082953
:1021400018BF70474DF8044D1B4A1168136801F021
:102150003F0113F4800F47F6C0730BD0BCFBF1F0C6
:102160001168194093FAA3F3B3FA83F3D94000FB43
:1021700001F00AE0B0FBF1F01168194093FAA3F303
:10218000B3FA83F3D94000FB01F011684FF44032F9
:102190005DF8044B92FAA2F201F44031B2FA82F2F5
:1021A000D140491C4900B0FBF1F0704708380240AB
:1021B0000024F40040787D01043802402DE9F84FF6
:1021C000DFF8A88304460078A8F1040710F0010F97
:1021D000A7F104055AD0D8F8000000F00C0004283C
:1021E00009D0D8F8000000F00C0008280CD138689D
:1021F00010F4800F08D0286810F4003F46D06068C3
:10220000002800F0AF8141E06068B0F5803F04BF76
:10221000286840F480300AD010B1B0F5A02F11D05A
:10222000286820F480302860286820F48020286006
:102230006068D0B1FEF714FE0646286810F4003F2F
:1022400008D023E0286840F480202860286840F403
:102250008030ECE7FEF704FE801B642800F2258145
:10226000286810F4003FF5D010E0FEF7F9FD0646AF
:10227000286810F4003F09D0FEF7F2FD801B6428A7
:1022800000F21381286810F4003FF5D1207810F097
:10229000020F50D0D8F800004FF0F80910F00C0FE2
:1022A00018D0D8F8000000F00C00082804BF3868E7
:1022B00010F4800F0ED0E0680028286828D040F085
:1022C00001002860FEF7CCFD0646286810F0020FDA
:1022D00009D011E0286810F0020F1CBFE068012847
:1022E0000AD000F03FB9FEF7BBFD801B02287DD865
:1022F000286810F0020FF6D0286899FAA9F221692F
:10230000B2FA82F220F0F80091400843286012E00F
:1023100020F001002860FEF7A3FD0646286810F0B3
:10232000020F08D0FEF79CFD801B02285ED82868AB
:1023300010F0020FF6D1207810F0080F33D0DFF83C
:10234000309260690028D9F8000016D040F00100F2
:10235000C9F80000FEF784FD0646D9F8000010F029
:10236000020F20D1FEF77CFD801B02283ED8D9F851
:10237000000010F0020FF5D015E020F00100C9F8C0
:102380000000FEF76DFD0646D9F8000010F0020FC0
:1023900009D0FEF765FD801B022827D8D9F8000078
:1023A00010F0020FF5D1207810F0040F63D07148BF
:1023B000016841F08051016000686F4E00F080506C
:1023C0000090306840F480703060FEF749FD81462F
:1023D000306810F4807F0BD1FEF742FDA0EB0900BE
:1023E000642862D8306810F4807F00E05DE0F3D0AC
:1023F000A068624E012804BF306840F0010009D097
:1024000008B1052813D0306820F001003060306832
:1024100020F004003060A06841F2883AD0B1FEF7A5
:102420001FFD8146306810F0020F08D023E03068AD
:1024300040F004003060306840F00100EAE7FEF749
:102440000FFDA0EB090050452FD8306810F0020FA7
:10245000F5D010E0FEF704FD8146306810F0020F61
:1024600009D0FEF7FDFCA0EB090050451DD83068EF
:1024700010F0020FF5D1A069E8B3D8F8001001F010
:102480000C0108296ED00228286820F0807028608E
:102490000ED0FEF7E5FC0446286810F0007F5ED001
:1024A000FEF7DEFC001B022855D90320BDE8F88F9B
:1024B000FEF7D6FC0646286810F0007F08D0FEF72D
:1024C000CFFC801B0228F0D8286810F0007FF6D1DE
:1024D000D4E9070147F6C0724FF0FF3392FAA2F237
:1024E0000843616AB2FA82F29140A26A03EB520297
:1024F0004FF4403300E032E093FAA3F3B3FA83F3EE
:102500009A4011434FF070620843E16A92FAA2F2D6
:10251000B2FA82F291404FF0E0420843216B92FA06
:10252000A2F2B2FA82F2914008433860286840F083
:1025300080702860FEF794FC0446286810F0007F45
:102540000DD1FEF78DFC001B0228AED8286810F0D4
:10255000007FF6D003E0286810F0007FA0D10020B3
:10256000BDE8F88F0120BDE8F88F00000838024070
:102570007438024040380240007000407038024019
:10258000002804BF0120704770B50446022084F87B
:102590007D00002520680561681E2168886120464D
:1025A00007F0F4FB2068416841F0080141602046D3
:1025B00000F0F2F8C4F8805084F87D50002084F8D0
:1025C0007C5070BD2DE9F0414FF0000504002E460F
:1025D00004BF0120BDE8F08194F87D00002720B9F8
:1025E000204684F87C7000F0D9F8022084F87D0041
:1025F000204607F0CBFBE06830B1012808BF10256A
:1026000002D0022808BF2025A06878B1012808BFA1
:102610004FF480660AD0022808BF4FF4006605D048
:10262000032804BF4FF4006645F00105514A2068B5
:10263000514B904216BF9842504851480560E0699E
:1026400040B321684FF00000914212BF99424FF40D
:102650000020FFF72FF84B4A2168914219BF4A4AE0
:1026600091424FF48010FFF725F800EB8000E169FC
:1026700040004902B0FBF1F14448A0FB0120C00832
:102680002062424202EB820201EB4201082984BF30
:10269000401C20626068002818BF0228E06B02D04E
:1026A000012802D004E0012802D04FF4007000E0BD
:1026B000002021680A68364B1A400A60226B616864
:1026C0001143D4E90D231A4311430843616A30438F
:1026D00008432169084361690843218C40EA01519C
:1026E00020680268114301602068416821F00F01F1
:1026F00021F46041416020684168A2691143D4E936
:102700000A231A431143416020688168214A11401D
:102710008160A16C206D226C0843E16C521E114354
:10272000626C08436FF0FF0101EB02220243206854
:1027300083681A4382602068C2684FF220031A40FF
:10274000C260D4E915021043E26D01EB0221B4F836
:10275000602041EA024101432068C2681143C16020
:10276000C4F88070012084F87D00002084F87C701B
:10277000BDE8F08104580140245801400058014050
:10278000005C0140045C0140245C0140CDCCCCCC19
:1027900010C005FF0080F8FF7047000012484DF898
:1027A00004ED87B0016841F480010160006800F425
:1027B000800005900D48016841F01001016000683B
:1027C000694600F0100005907C20009002200190E6
:1027D0000120029003200390062004900448FEF795
:1027E00013FA07B05DF804FB443802403038024069
:1027F00000100240002804BF0120704770B5044655
:1028000090F82C000D4628B9002084F82D002046B1
:1028100000F012F8022084F82C002068211DFDF73A
:10282000FFFFD4E900022946FEF758F8012084F89A
:102830002C00002070BD000030484DF804ED87B03A
:10284000016841F001010160006800F0010005909D
:102850002B48016841F004010160016801F00401A6
:102860000591016841F008010160016801F008016B
:102870000591016841F010010160016801F010014B
:102880000591016841F020010160016801F020011B
:102890000591016841F0400101600068694600F05F
:1028A000400005900D200090022001900120029030
:1028B000032003900C2004901248FEF7A5F94CF277
:1028C0000370009010486946FEF79EF94FF683703A
:1028D00000900E486946FEF797F94FF63F000090CA
:1028E0000B486946FEF790F948F237100090094806
:1028F0006946FEF789F907B05DF804FB38380240F5
:102900003038024000080240000C02400010024033
:10291000001402400018024010B5044690F82C0044
:10292000022808BF10BD022084F82C002068FDF7A3
:10293000A6FF012084F82C00002010BD70B50446CD
:1029400090F82C000D46022808BF70BD022084F8C4
:102950002C002068FDF799FF286802280CBF05208D
:10296000012084F82C00002070BD002804BF012045
:1029700070472DE9F04102270446006B012620B183
:1029800094F85D00002560B906E0E068B0F5E06FFE
:102990008CBF27632663F3E7204684F85C5000F081
:1029A0004DF884F85D702068016821F040010160F5
:1029B000E168B1F5E06F8CBF00204FF48050B1F5B5
:1029C000706F1CBFB1F5E06FA562D4E9011241EA56
:1029D0000201D4E9042342EA030241EA0201228B04
:1029E00002F4007241EA0201E26941EA0201226A4C
:1029F00041EA0201A26A41EA020122681160216BE8
:102A0000022904D121680A6842F400620A60626BFC
:102A10004FF0040C616AA3691143E2680CEA1343A6
:102A20001A4311430843216848602168E06A08613D
:102A3000256684F85D600020BDE8F08112484DF8FD
:102A400004ED87B0016841F002010160006800F008
:102A5000020005900D48016841F480410160006862
:102A6000012100F4804005904FF460400090022066
:102A7000CDE9010103900520049069460448FEF762
:102A8000C3F807B05DF804FB30380240403802401C
:102A9000000402402DE9F84F994692468B460446C1
:102AA0000A9FFEF7DDF9804694F85C0001250026B8
:102AB000012804BF0220BDE8F88F012084F85C00E3
:102AC00094F85D00012818BF022640F05E81BBF13A
:102AD000000F1CBFBAF1000FB9F1000F00F05481D4
:102AE0004FF0050084F85D004FF000002066C4F848
:102AF00040A0A4F84690A4F84490C4F838B0A4F8D4
:102B00003E90A4F83C90A06AB0F5005F0AD120681E
:102B100001684DF6FF72114001602068016841F4C0
:102B200000510160E068B0F5E06F9CBFB4F846006A
:102B30000128206841688CBF21F4805141F4805104
:102B400041602068016811F0400F03D1016841F035
:102B500040010160E068B0F5E06F50D800F0C5B802
:102B6000002D18BF00282AD02068816811F0020FBC
:102B700025D0A16B0988C1604FF00005A06B00F162
:102B80000200A063E08FA0F101000004000CE087C8
:102B900004BFA06AB0F5005F11D12068016811F090
:102BA000040F07D1416811F0080F03D0016841F408
:102BB000007101602068016841F480510160B4F83F
:102BC000460098B12068816811F0010F0ED0C068EE
:102BD0004FF00105216C0880206C00F10200206498
:102BE000B4F84600A0F10100A4F84600B7F1FF3F99
:102BF00005D0FEF735F9A0EB0800B84273D2E08F9C
:102C0000002804BFB4F846100029A9D1A06AB0F585
:102C1000005F73D0A1E0002D18BF002931D02068DB
:102C2000826812F0020F2CD00129A16B08D9098803
:102C3000C160A06B801CA063E08F801EE08707E06E
:102C40004A1CA26309780173E08F401EE0870025CB
:102C50000004000C04BFA06AB0F5005F11D1206829
:102C6000016811F0040F07D1416811F0080F03D07B
:102C7000016841F4007101602068016841F48051ED
:102C80000160B4F8461029B32068826812F0010F81
:102C900020D0012913D9C068216C0880206C801CC9
:102CA0002064B4F84600801E80B2A4F846000128D3
:102CB00010D82068416841F4805141600AE0017BEE
:102CC000206C421C22640170B4F84600401EA4F837
:102CD00046000125B7F1FF3F07D0FEF7C1F8A0EB92
:102CE0000800B84201D303264FE0E18F002904BF5A
:102CF000B4F8460000288ED188E7FFE74FF00102C4
:102D00003B461146204607F0D4F9D0B9E068B0F54B
:102D1000706F206808D0007BADF80000BDF800009F
:102D2000206B022806D018E0C068ADF80000BDF89E
:102D3000000012E001223B461146204607F0B9F997
:102D400028B1206E40F00200206603261DE02068B6
:102D5000007BADF80000BDF800002068816811F02C
:102D6000100F07D0216E41F0020121664FF6EF717E
:102D7000816001263946204607F022F900281CBF51
:102D800020202066206E00B10126012084F85D001D
:102D9000002084F85C003046BDE8F88F002804BFAE
:102DA0000120704770B5044690F8450015460E4660
:102DB00028B9002084F84400204600F01BF8206861
:102DC00004F10801FDF7BCFCA26831462068FDF75C
:102DD000F5FCE36A2946D4E90102FDF78DFCA16800
:102DE000206850F8212042F0010240F82120002004
:102DF00070BD00001A484DF804ED87B0016841F03D
:102E000001010160006800F00100059015480168AB
:102E100041F008010160016801F0080105910168B5
:102E200041F0100101600068694600F01000059053
:102E30004EF2B37000900220019001200290032016
:102E400003900C2004900848FDF7DEFE4FF68070DA
:102E5000009006486946FDF7D7FE07B05DF804FB11
:102E60003838024030380240000C02400010024066
:102E70004FF0E021042808690CBF40F0040020F066
:102E80000400086170470000401EB0F1807F24BF3D
:102E9000012070474FF0E0214861F020044A82F899
:102EA000140D002088610720086100207047000091
:102EB0000FE000E07047000070B501680446C86983
:102EC0000A688B6810F00F0F4FF0200551D040F2C8
:102ED000011C13EA0C0F7DD010F0010F18BF12F483
:102EE000807F07D04FF0010CC1F820C0E16E41F0A7
:102EF0000101E16610F0020F18BF13F0010F08D0B6
:102F0000D4F800C00221CCF82010E16E41F0040199
:102F1000E16610F0040F18BF13F0010F08D0D4F8C9
:102F200000C00421CCF82010E16E41F00201E166FE
:102F300010F0080F0CD002F0200103F00103194338
:102F400006D0236808211962E16E41F00801E166AC
:102F5000E16E002908BF70BD10F0200F1EBF12F0F7
:102F6000200F204607F017FAE06E10F0080F10D17E
:102F70000AE010F0200F18BF12F0200F39D02046C1
:102F8000BDE8704007F007BA2068806810F0400F75
:102F900029D02068016821F490710160206881685F
:102FA00021F00101816084F86A502068816811F085
:102FB000400F14D0816821F040018160606E70B1D3
:102FC0002F490165606EFDF719FD002808BF70BD2F
:102FD000606E00E00DE0016DBDE8704008472046DE
:102FE000FFF768FF70BD2046FFF764FF0020E06632
:102FF00070BD10F0800F18BF12F0800F2FD094F822
:103000006900212818BF70BDB4F85200A0B1A068B3
:10301000B0F5805F04BF20690028E06C16D000F195
:103020000101E164216800788862B4F85200A0F1DF
:103030000100A4F8520070BD086820F0800008600C
:103040002068016841F04001016070BD0088C0F354
:1030500008008862E06C00F10200E064E5E710F02F
:10306000400F14BF12F0400F70BD20460A6822F0D6
:1030700040020A6084F8695000F000F970BD000059
:1030800083A30008002804BF0120704710B5044640
:1030900090F8690028B9002084F86800204600F004
:1030A00029F8242084F869002068016821F00101D2
:1030B0000160204607F0B0F9012808BF10BD606A22
:1030C00000281CBF204607F0BFF82068416821F4A3
:1030D000904141602068816821F02A018160206868
:1030E000016841F0010101602046BDE8104007F091
:1030F00018B9000030B50446006887B0A0F18041DF
:10310000B1F588311CBF07B030BD1B48016841F0E4
:1031100001010160006800F0010005901748016896
:1031200041F01001016000680121154D00F0100010
:1031300005904FF4007000900220CDE9010103904A
:103140000720694604902846FDF75EFD281569466C
:1031500000902846FDF758FD2068016841F02001E5
:1031600001602520FEF75DF8032225201146FEF7B9
:1031700065F807B030BD00003038024044380240E6
:10318000000002402DE9F84F044690F86A00984686
:1031900016460D4620286CD1002D12BF002E0120AE
:1031A000BDE8F88F94F86800012862D0012084F807
:1031B00068004FF00009C4F86C90222084F86A007F
:1031C000FDF74EFEA4F858608246A4F85A60FF212D
:1031D000A068B0F5805F05D07F2250B1B0F1805F6C
:1031E0000CD012E02069002808BF40F2FF1002D185
:1031F00009E02069E8B9A4F85C1006E0206900281D
:1032000018BF3F2015D0A4F85C00B4F85C60F7B29A
:10321000B4F85A0000225346401EA4F85A00202158
:103220002046CDF8008007F04BFA28B10320BDE816
:10323000F88FA4F85C20E8E7A068B0F5805F04BFD1
:10324000206900282068406A19BF384005F8010B42
:10325000304025F8020BB4F85A000028D8D14FF0BE
:10326000200084F86A004FF0000084F86890BDE800
:10327000F88F4FF00200BDE8F88F70477047FEE707
:10328000114810B586B0016841F080010160006806
:1032900069460E4C00F0800005903020009001201F
:1032A00001900290022003902046FDF7ADFC012220
:1032B00020462021FDF7CFFD012220461021FDF7F9
:1032C000CAFD06B010BD000030380240001C0240AC
:1032D00070B51C4E05463046316821F440613160BE
:1032E000316841F48061316000221021FDF7B3FDA7
:1032F000002415F0800F05D0012230462021FDF773
:10330000AAFD04E0002230462021FDF7A4FD680656
:10331000050E022007F0C6FC012230461021FDF701
:103320009AFD022007F0BEFC002230461021FDF776
:1033300092FD022007F0B6FC601CC4B2082CD8D362
:1033400070BD0000001C024010B5124C206820F433
:1033500040602060206840F48060206001222046A8
:103360002021FDF778FD012220461021FDF773FD95
:10337000042007F097FC002220462021FDF76BFD7A
:10338000042007F08FFC00222046BDE810401021E9
:10339000FDF761BD001C024010B5124C206820F4FE
:1033A00040602060206840F4806020600022204659
:1033B0001021FDF750FD002220462021FDF74BFD96
:1033C000042007F06FFC012220461021FDF743FD89
:1033D000042007F067FC01222046BDE810402021B0
:1033E000FDF739BD001C024070B5294D0024286846
:1033F00020F44060286028682860012220212846A7
:10340000FDF729FD012007F04DFC0122284610217F
:10341000FDF721FD012007F045FC20212846FDF79E
:1034200015FD00282DD0601CC4B2FA2C23D92868C1
:1034300020F440602860286840F480602860002202
:1034400028461021FDF707FD002228462021FDF720
:1034500002FD042007F026FC012228461021FDF77A
:10346000FAFC042007F01EFC012228462021FDF76B
:10347000F2FC012070BD20212846FDF7E7FC002862
:10348000D1D1002228461021FDF7E5FC002070BDB7
:10349000001C02401B4870B586B0016841F0010174
:1034A0000160016801F001010591016841F004012A
:1034B0000160016801F004010591016841F080019B
:1034C0000160006803250026694600F08000059031
:1034D00002200124CDE902050B48CDE90046FDF7A5
:1034E00093FB60036946CDE900060848CDE9024533
:1034F000FDF78AFB0C20009005486946FDF784FB28
:1035000006B070BD303802400000024000080240A2
:10351000001C02402DE9F041344C0126344F0128B3
:10352000DFF8D080344D08BF267001D02078A8B1D4
:1035300008212846FDF78AFCB8B104212846FDF78A
:1035400085FC90B14FF400513846FDF77FFC60B127
:1035500001214046FDF77AFC012806D008212846C3
:10356000FDF774FC01283ED12AE00A2007F074FB25
:103570000020207008212846FDF768FC002804BFC1
:103580000120BDE8F08104212846FDF75FFC0028FA
:1035900004BF0220BDE8F0814FF400513846FDF72A
:1035A00055FC002804BF0320BDE8F08101214046FE
:1035B000FDF74CFC012804BF0420BDE8F08112E0B7
:1035C00004212846FDF742FC01280CD1410338466E
:1035D000FDF73CFC012806D101214046FDF736FCF1
:1035E000002808BF26700020BDE8F08128000220D6
:1035F0000008024000000240001C02402DE9F05F7C
:103600003D4C3E4DA071296839B105F053FBE88A65
:103610002080288B6080BDE8F09F37492C232B2524
:103620004FF0F0094FF4305E49F2413A4FF44876DA
:103630004FF02A0C89884FF4A0784FF4F07245F2CD
:10364000105B45F2103760B1A4F800805145A4F832
:10365000029018BFB9422ED12381A4F80AC0A581D7
:1036600040E0A4F800905145A4F8028018BFB94288
:1036700009D12381B942A4F80AC0A58104BFA4F8E6
:103680000080628033E059450AD1A4F808E04FF485
:10369000285060814FF42C50A0812280668026E063
:1036A000A1F5C850633822D123816581A4F80CC0EC
:1036B000228066801BE059450AD1A4F808E04FF447
:1036C000285060814FF42C50A0812680628009E050
:1036D000A1F5C850633805D12381A4F80AC0A5819B
:1036E00026806280B94204BF2280A4F802800020B4
:1036F000BDE8F05F04F0FCBEB41202206C1302209F
:103700002DE9F84F934B1B681BB1BDE8F84F05F04E
:10371000E5BADFF844A20C0ADFF84092CBB2D446F7
:10372000070ABAF8045009F10206BCF80C1000F0C0
:10373000FF08BCF80AC0A5F5134BBBF1410B1CBF39
:10374000A5F5A04BBBF5447B09D0A5F5A04BBBF577
:10375000A26B3DD0A5F5C857633F7CD0F2E0ADF831
:1037600000C0BDF80000ADF80000BDF80000A9F8E9
:103770000000ADF80070BDF80000ADF80000BDF825
:1037800000003080ADF80080BDF80000ADF800000A
:10379000BDF800003080ADF80010BDF80000ADF8B5
:1037A0000000BDF80000A9F80000ADF80040BDF829
:1037B0000000ADF80000BDF800003080ADF800302A
:1037C000BDF80000ADF80000BDF800003080B9E0A1
:1037D000ADF800C0BDF80000ADF80000BDF8000075
:1037E000A9F80000ADF80070BDF80000ADF80000C9
:1037F000BDF8000030800CF10100ADF80000BDF80C
:103800000000ADF80000BDF80000A9F80000ADF818
:103810000080BDF80000ADF80000BDF80000308069
:10382000ADF80010BDF80000ADF80000BDF80000D4
:10383000A9F80000ADF80040BDF80000ADF80000A8
:10384000BDF800003080481CADF80000BDF8000055
:10385000ADF8000000E00DE0BDF80000A9F80000A0
:10386000ADF80030BDF80000ADF80000BDF8000074
:10387000308067E09AF8065025B9BAF80050281A47
:10388000401E80B2ADF800C0BDF800C0ADF800C069
:10389000BDF800C0A9F800C04FEA102CADF800C078
:1038A000BDF80050ADF80050BDF800503580C0B2F2
:1038B000ADF80000BDF80050ADF80050BDF8005064
:1038C0003580ADF800C0BDF800C0ADF800C0BDF84F
:1038D00000C0A6F800C0ADF80000BDF80000ADF8CB
:1038E0000000BDF800003080ADF80010BDF8000009
:1038F000ADF80000BDF80000A9F80000ADF80040E8
:10390000BDF80000ADF80000BDF800003080ADF853
:103910000030BDF80000ADF80000BDF800003080B8
:10392000ADF80040BDF80000ADF80000BDF80000A3
:103930003080ADF80030BDF80000ADF80000BDF8F3
:1039400000003080BAF80800A9F800003280BDE815
:10395000F88F00006C130220B4120220FEFF0760F3
:103960002DE9F84F1F46194B83460C460A981B68F1
:1039700033B13B460090584605F0D2F9BDE8F88FC8
:10398000A2EB0B01491C8DB2BC4288BFBDE8F88F89
:10399000DFF83C9086B2DFF83CA00AF1020821462D
:1039A000584604F033FFB9F80800AAF800000020D8
:1039B000002D05D9A8F80060401C80B28542F9D8D6
:1039C000601C84B2BC42EAD9BDE8F88F6C130220B7
:1039D000B4120220FEFF07602DE9F04F95B005F00C
:1039E00051FBDFF80CB445F21059ABF8040018B1E4
:1039F00005F0F2F904F082BCFE480068FD4940F091
:103A000002000860086801264FF0200ACDF838A0AF
:103A100000F0020013904FF00308CDF84480F64800
:103A20000EA9CDE90F66FDF7EFF804F0CBFCF349E2
:103A30004FF02040002707AA0860F1484860084678
:103A400087601020CF600F614861000248628000EB
:103A5000C8620F20009000200190502002900020AA
:103A600006900F200790002008900F20099000205A
:103A70000D90E2486946FFF791F9322007F0ECF823
:103A8000D320ADF84C00BDF84C00ADF84C00BDF8AB
:103A90004C00DC4D2880AC1C2088ADF84C00BDF8F3
:103AA0004C002088ADF84C00BDF84C002088ADF8E3
:103AB0004C00BDF84C004FF6FF71228801EA00204F
:103AC000ADF84C20BDF84C201043ABF80400A0F535
:103AD0001342413A7DD0D420ADF84C00BDF84C00E3
:103AE000ADF84C00BDF84C0028802088ADF84C00A3
:103AF000BDF84C002088ADF84C00BDF84C00208883
:103B0000ADF84C00BDF84C00228801EA0020ADF869
:103B10004C20BDF84C201043ABF80400A0F5A642A1
:103B2000103A65D04FF45A40ADF84C00BDF84C0047
:103B3000ADF84C00BDF84C0028802088ADF84C0052
:103B4000BDF84C004FF45B40ADF84C00BDF84C00A4
:103B5000ADF84C00BDF84C0028802088ADF84C0032
:103B6000BDF84C004FF45C42ADF84C2001EA002057
:103B7000BDF84C20ADF84C20BDF84C202A8022889E
:103B8000ADF84C20BDF84C201043ABF80400B0F564
:103B9000004F0CBFABF80490484529D04FF0A1006E
:103BA000ADF84C00BDF84C00ADF84C00BDF84C0031
:103BB00028802088ADF84C00BDF84C002088ADF876
:103BC0004C00BDF84C0001EA00202188ADF84C10F3
:103BD00000E00DE0BDF84C1041EA0000ABF8040035
:103BE000A0F5AE41613904BF41F66310ABF80400A3
:103BF000BBF8041084A0FCF775FB7D48ED214FF065
:103C0000B10C8288A2F51340413800F03F86E220D3
:103C10004FF0040EA2F5A643103B01F0B3814A45D4
:103C200044F0498155204FF4704129802080481C80
:103C3000AA2128802180411C522029802080481CF4
:103C4000082128802180401C0121288021800D200E
:103C50004FF4304129802080481C0D21288021808C
:103C6000411C0D202980208034214FF436402880CB
:103C70002180401C28802180411C34202980208004
:103C80000D214FF4314028802180401C2880218064
:103C9000401C2880218034214FF437402880218027
:103CA000411C342029802080481C34212880218018
:103CB00000204FF4324129802080481C00212880B8
:103CC0002180411C00202980208024204FF438418D
:103CD00029802080481C242128802180401C2880A5
:103CE000218001204FF43F41298020800F204FF494
:103CF000334129802080481C0F2128802180401CCE
:103D00002880218034204FF4394129802080481CAC
:103D1000342128802180411C3420298020800820E3
:103D20004FF4354129802080481C082128802180BB
:103D3000401C2880218003214FF4424028802180AC
:103D400024214FF43A4028802180411C24202980DE
:103D50002080491C2980208000204FF43C4129808C
:103D60002080491C782029802080491C002029803F
:103D700020804FF43D4129802080491C78202980F3
:103D80002080491C0020298020804FF43E4129805A
:103D90002080491C64202980208000214FF451405C
:103DA00028802180401C332128802180401C002154
:103DB00028802180401C342128802180401C002143
:103DC00028802180411C3A2029802080481C002125
:103DD00028802180411C4A2029802080481C002105
:103DE00028802180411C5C2029802080491C13E010
:103DF000B41202203038024000040240681202204F
:103E0000040100A0FEFF0760204C43442049443ACF
:103E100025780D0A00000000002029802080491C20
:103E2000812029802080491C002029802080491C75
:103E3000A62029802080491C002029802080481C41
:103E4000E52128802180411C012029802080491CF7
:103E5000132029802080491C012029802080491CB2
:103E6000542029802080481C012128802180401C6A
:103E7000822128802180401C012128802180401C33
:103E8000CA2128802180411C022029802080481CD2
:103E9000002128802180411C022029802080491C8B
:103EA000012029802080481C022128802180411C7B
:103EB000342029802080481C022128802180401C39
:103EC000672128802180411C022029802080491CF4
:103ED000842029802080491C022029802080491CC0
:103EE000A42029802080491C022029802080491C90
:103EF000B72029802080491C022029802080481C6E
:103F0000CF2128802180411C022029802080481C4C
:103F1000DE2128802180411C022029802080491C2C
:103F2000F22029802080491C022029802080491C01
:103F3000FE2029802080491C032029802080491CE4
:103F4000102029802080491C032029802080481CC3
:103F5000332128802180411C032029802080481C97
:103F60006D212880218000204FF45241298020803B
:103F7000491C332029802080481C00212880218072
:103F8000411C342029802080491C00202980208069
:103F9000481C3A2128802180411C00202980208053
:103FA000491C4A2029802080491C0020298020802B
:103FB000491C5C2029802080491C00202980208009
:103FC000491C812029802080491C002029802080D4
:103FD000481CA62128802180411C002029802080A7
:103FE000481CE52128802180411C01202980208057
:103FF000491C132029802080491C01202980208011
:10400000481C542128802180411C012029802080C7
:10401000491C822029802080491C01202980208081
:10402000491CCA2029802080481C02212880218028
:10403000411C002029802080491C022029802080EA
:10404000491C012029802080491C022029802080D1
:10405000491C342029802080481C0221288021808E
:10406000411C672029802080491C02202980208053
:10407000491C842029802080491C0220298020801E
:10408000491CA42029802080491C022029802080EE
:10409000491CB72029802080491C022029802080CB
:1040A000491CCF2029802080491C022029802080A3
:1040B000481CDE2128802180411C0220298020808C
:1040C000491CF22029802080491C02202980208060
:1040D000491CFE2029802080491C03202980208043
:1040E000491C102029802080491C03202980208021
:1040F000491C332029802080491C032029802080EE
:10410000491C6D202980208000204FF453412980D4
:104110002080491C332029802080491C00202980D0
:104120002080491C342029802080491C00202980BF
:104130002080491C3A2029802080491C00202980A9
:104140002080491C4A2029802080491C0020298089
:104150002080491C5C2029802080491C0020298067
:104160002080491C812029802080491C0020298032
:104170002080491CA62029802080491C00202980FD
:104180002080491CE52029802080491C01202980AD
:104190002080491C132029802080491C012029806F
:1041A0002080491C542029802080491C012029801E
:1041B0002080491C822029802080491C01202980E0
:1041C0002080491CCA2029802080491C0220298087
:1041D0002080491C002029802080491C0220298041
:1041E0002080491C012029802080491C0220298030
:1041F0002080491C342029802080491C02202980ED
:104200002080491C672029802080491C02202980A9
:104210002080491C842029802080491C022029807C
:104220002080491CA42029802080491C022029804C
:104230002080491CB72029802080491C0220298029
:104240002080491CCF2029802080491C0220298001
:104250002080491CDE2029802080491C02202980E2
:104260002080491CF22029802080491C02202980BE
:104270002080491CFE2029802080491C03202980A1
:104280002080491C102029802080491C032029807F
:104290002080481C332128802180411C0320298054
:1042A0002080491C6D202980208000204FF454413B
:1042B00029802080491C332029802080491C00202F
:1042C00029802080491C342029802080491C00201E
:1042D00029802080491C3A2029802080481C002108
:1042E00028802180411C4A2029802080491C0020F0
:1042F00029802080491C5C2029802080491C0020C6
:1043000029802080491C812029802080491C002090
:1043100029802080491CA62029802080491C00205B
:1043200029802080491CE52029802080491C01200B
:1043300029802080491C132029802080491C0120CD
:1043400029802080491C542029802080491C01207C
:1043500029802080491C822029802080491C01203E
:1043600029802080491CCA2029802080481C0221E5
:1043700028802180411C002029802080491C0220A7
:1043800029802080481C012128802180411C022096
:1043900029802080491C342029802080491C02204B
:1043A00029802080491C672029802080481C022108
:1043B00028802180401C842128802180411C0220EB
:1043C00029802080491CA42029802080481C0221AB
:1043D00028802180411CB72029802080481C022190
:1043E00028802180411CCF2029802080481C022168
:1043F00028802180411CDE2029802080491C022049
:1044000029802080491CF22029802080491C02201C
:1044100029802080481CFE2128802180411C032007
:1044200029802080491C102029802080491C0320DD
:1044300029802080481C332128802180411C0320B2
:1044400029802080491C6D202980208000204FF485
:10445000554129802080481C332128802180411C1F
:10446000002029802080491C342029802080491C7C
:10447000002029802080491C3A2029802080491C66
:10448000002029802080481C4A2128802180411C4E
:10449000002029802080481C5C2128802180411C2C
:1044A000002029802080491C812029802080491CEF
:1044B000002029802080491CA62029802080491CBA
:1044C000002029802080491CE52029802080491C6B
:1044D000012029802080481C132128802180401C35
:1044E000012128802180401C542128802180411CEA
:1044F000012029802080491C822029802080481C9E
:10450000012128802180401CCA2128802180411C53
:10451000022029802080491C002029802080491CFD
:10452000022029802080491C012029802080491CEC
:10453000022029802080491C342029802080491CA9
:10454000022029802080491C672029802080491C66
:10455000022029802080491C842029802080481C3A
:10456000022128802180401CA42128802180411C18
:10457000022029802080491CB72029802080481CE7
:10458000022128802180401CCF2128802180411CCD
:10459000022029802080491CDE2029802080481CA0
:1045A000022128802180411CF22029802080481C83
:1045B000022128802180401CFE2128802180411C6E
:1045C000032029802080481C102128802180401C45
:1045D000032128802180411C332029802080481C11
:1045E000032128802180411C6D202980208000200B
:1045F0004FF4564129802080491C33202980208097
:10460000491C002029802080481C342128802180DA
:10461000411C002029802080491C3A2029802080CC
:10462000491C002029802080491C4A2029802080A4
:10463000481C002128802180411C5C20298020808A
:10464000491C002029802080481C8121288021804D
:10465000411C002029802080481CA6212880218020
:10466000401C002128802180411CE52029802080D9
:10467000491C012029802080491C1320298020808A
:10468000491C012029802080491C54202980208039
:10469000491C012029802080491C822029802080FB
:1046A000491C012029802080481CCA2128802180A3
:1046B000411C022029802080491C00202980208064
:1046C000491C022029802080491C0120298020804B
:1046D000491C022029802080491C34202980208008
:1046E000491C022029802080491C672029802080C5
:1046F000491C022029802080491C84202980208098
:10470000491C022029802080491CA4202980208067
:10471000491C022029802080491CB7202980208044
:10472000491C022029802080491CCF20298020801C
:10473000491C022029802080491CDE2029802080FD
:10474000491C022029802080491CF22029802080D9
:10475000491C022029802080491CFE2029802080BD
:10476000481C032128802180411C102029802080A2
:10477000491C032029802080491C33202980208067
:10478000491C032029802080491C6D20298020801D
:1047900055204FF4704129802080491CAA2029808F
:1047A0002080491C522029802080491C0820298013
:1047B0002080481C002128802180CC204FF43141EA
:1047C00029802080491C00202980208005204FF46A
:1047D00036412980208070204FF437412980208085
:1047E000491C2980208001204FF4384129802080F5
:1047F000491C032029802080491C29802080491CD5
:104800002980208002204FF43C4129802080491CCF
:10481000002029802080491C29802080D0204FF44E
:10482000494129802080491C022029802080491C80
:10483000502029802080491C29802080491C298003
:10484000208000204FF454512980208055204FF4BF
:104850006851298020804FF48850ADF84C00BDF895
:104860004C00ADF84C00BDF84C002880782006F0D4
:1048700019FA4FF42450ADF84C00BDF84C00ADF8D7
:104880004C00BDF84C00288003F038BDCF20ADF8B7
:104890004C00BDF84C00ADF84C00BDF84C00288031
:1048A000ADF84C70BDF84C00ADF84C00BDF84C00B4
:1048B0002080C122ADF84C20BDF84C00ADF84C0072
:1048C000BDF84C0020803020ADF84C00BDF84C30D5
:1048D000ADF84C30BDF84C302380ADF84C10BDF82D
:1048E0004C10ADF84C10BDF84C1029806421ADF887
:1048F0004C10BDF84C10ADF84C10BDF84C10218098
:10490000ADF84C80BDF84C10ADF84C10BDF84C1013
:1049100021801221ADF84C10BDF84C10ADF84C10B0
:10492000BDF84C1021808121ADF84C10BDF84C1021
:10493000ADF84C10BDF84C102180E821ADF84C10BA
:10494000BDF84C10ADF84C10BDF84C1029808521F5
:10495000ADF84C10BDF84C10ADF84C10BDF84C1033
:1049600021801021ADF84C10BDF84C30ADF84C3022
:10497000BDF84C3023807A23ADF84C30BDF84C3074
:10498000ADF84C30BDF84C302380CB23ADF84C3023
:10499000BDF84C30ADF84C30BDF84C302B8039238D
:1049A000ADF84C30BDF84C30ADF84C30BDF84C3063
:1049B00023802C23ADF84C30BDF84C30ADF84C3092
:1049C000BDF84C302380ADF84C70BDF84C30ADF8DC
:1049D0004C30BDF84C3023803423ADF84C30BDF85A
:1049E0004C30ADF84C30BDF84C3023800223ADF88C
:1049F0004C30BDF84C30ADF84C30BDF84C30238015
:104A0000F723ADF84C30BDF84C30ADF84C30BDF864
:104A10004C302B80ADF84CA0BDF84C30ADF84C308C
:104A2000BDF84C302380EA23ADF84C30BDF84C3053
:104A3000ADF84C30BDF84C302B80ADF84C70BDF863
:104A40004C30ADF84C30BDF84C302380ADF84C7094
:104A5000BDF84C30ADF84C30BDF84C302380C0234D
:104A6000ADF84C30BDF84C30ADF84C30BDF84C30A2
:104A70002B801B23ADF84C30BDF84C30ADF84C30DA
:104A8000BDF84C302380ADF84C20BDF84C20ADF87B
:104A90004C20BDF84C202A80ADF84C60BDF84C206D
:104AA000ADF84C20BDF84C202280C522ADF84C203A
:104AB000BDF84C20ADF84C20BDF84C202A80ADF854
:104AC0004C00BDF84C20ADF84C20BDF84C202280A5
:104AD000ADF84C00BDF84C00ADF84C00BDF84C00F2
:104AE0002080C720ADF84C00BDF84C00ADF84C005C
:104AF000BDF84C002880B720ADF84C00BDF84C0044
:104B0000ADF84C00BDF84C0020803620ADF84C00CC
:104B1000BDF84C00ADF84C00BDF84C002880482092
:104B2000ADF84C00BDF84C00ADF84C00BDF84C00A1
:104B300020803A20ADF84C00BDF84C00ADF84C0098
:104B4000BDF84C0028805520ADF84C00BDF84C0055
:104B5000ADF84C00BDF84C002080ADF84CC0BDF85D
:104B60004C00ADF84C00BDF84C002880ADF84C70FE
:104B7000BDF84C00ADF84C00BDF84C0020801A2068
:104B8000ADF84C00BDF84C00ADF84C00BDF84C0041
:104B90002080B620ADF84C00BDF84C00ADF84C00BC
:104BA000BDF84C0028804FF00A0CADF84CC0BDF8A1
:104BB0004C00ADF84C00BDF84C002080A220ADF8B0
:104BC0004C00BDF84C00ADF84C00BDF84C00208006
:104BD000F220ADF84C00BDF84C00ADF84C00BDF82B
:104BE0004C002880ADF84C70BDF84C00ADF84C007E
:104BF000BDF84C0020802620ADF84C00BDF84C00DC
:104C0000ADF84C00BDF84C002880ADF84C60BDF804
:104C10004C00ADF84C00BDF84C002080E020ADF811
:104C20004C00BDF84C00ADF84C00BDF84C0028809D
:104C30000F20ADF84C00BDF84C20ADF84C20BDF86D
:104C40004C2022802A23ADF84C30BDF84C20ADF822
:104C50004C20BDF84C2022802822ADF84C20BDF815
:104C60004C20ADF84C20BDF84C2022800822ADF835
:104C70004C20BDF84C80ADF84C80BDF84C80A4F8B9
:104C800000804FF00E08ADF84C80BDF84C80ADF8B8
:104C90004C80BDF84C80A4F80080ADF84C20BDF8E5
:104CA0004C20ADF84C20BDF84C2022805422ADF8A9
:104CB0004C20BDF84C20ADF84C20BDF84C20228093
:104CC000A922ADF84C20BDF84C20ADF84C20BDF821
:104CD0004C2022804322ADF84C20BDF84C20ADF88A
:104CE0004C20BDF84C202280ADF84CC0BDF84C20C3
:104CF000ADF84C20BDF84C202280ADF84C00BDF83A
:104D00004C20ADF84C20BDF84C202280ADF84C7002
:104D1000BDF84C20ADF84C20BDF84C202280ADF8F9
:104D20004C70BDF84C20ADF84C20BDF84C202280D2
:104D3000ADF84C70BDF84C20ADF84C20BDF84C20BF
:104D40002280ADF84C70BDF84C20ADF84C20BDF879
:104D50004C202280E122ADF84C20BDF84C20ADF86B
:104D60004C20BDF84C202A80ADF84C70BDF84C208A
:104D7000ADF84C20BDF84C2022801522ADF84C2017
:104D8000BDF84C20ADF84C20BDF84C2022801722F5
:104D9000ADF84C20BDF84C20ADF84C20BDF84C20AF
:104DA00022800722ADF84C20BDF84C20ADF84C20F5
:104DB000BDF84C2022804FF0110CADF84CC0BDF86E
:104DC0004C20ADF84C20BDF84C2022800622ADF8D6
:104DD0004C20BDF84C20ADF84C20BDF84C20228072
:104DE0002B22ADF84C20BDF84C80ADF84C80BDF8BE
:104DF0004C80A4F800804FF05608ADF84C80BDF808
:104E00004C80ADF84C80BDF84C80A4F800804FF089
:104E10003C08ADF84C80BDF84C80ADF84C80BDF836
:104E20004C80A4F800804FF00508ADF84C80BDF828
:104E30004C80ADF84C80BDF84C80A4F80080ADF8F3
:104E40004C10BDF84C10ADF84C10BDF84C10218042
:104E5000ADF84C00BDF84C10ADF84C10BDF84C103E
:104E600021803F21ADF84C10BDF84C80ADF84C804E
:104E7000BDF84C80A4F80080ADF84C10BDF84C8013
:104E8000ADF84C80BDF84C80A4F80080ADF84C0023
:104E9000BDF84C00ADF84C00BDF84C002080ADF8DA
:104EA0004C20BDF84C00ADF84C00BDF84C002880FB
:104EB000ADF84C70BDF84C00ADF84C00BDF84C009E
:104EC0002080ADF84C70BDF84C00ADF84C00BDF83A
:104ED0004C002080ADF84C60BDF84C00ADF84C00A3
:104EE000BDF84C002080ADF84C10BDF84C00ADF87A
:104EF0004C00BDF84C002080ADF84C30BDF84C00A3
:104F0000ADF84C00BDF84C002880ADF84C70BDF8F1
:104F10004C00ADF84C00BDF84C002080ADF84C7052
:104F2000BDF84C00ADF84C00BDF84C002080ADF849
:104F30004C70BDF84C00ADF84C00BDF84C00208022
:104F4000EF20ADF84C00BDF84C00ADF84C00BDF8BA
:104F50004C002080ADF84CC0BDF84C00ADF84C00C2
:104F6000BDF84C002880782005F076FE2920ADF8A9
:104F70004C00BDF84C00ADF84C00BDF84C0028804A
:104F800003F0BCB9ADF84C10BDF84C10ADF84C10A6
:104F9000BDF84C102980ADF84C60BDF84C10ADF850
:104FA0004C10BDF84C102180FE21ADF84C10BDF81E
:104FB0004C10ADF84C10BDF84C102180EE21ADF82E
:104FC0004C10BDF84C10ADF84C10BDF84C102980B9
:104FD000DE21ADF84C10BDF84C10ADF84C10BDF80A
:104FE0004C1021802123ADF84C30BDF84C10ADF8A9
:104FF0004C10BDF84C102180F121ADF84C10BDF8DB
:105000004C10ADF84C10BDF84C1029800121ADF8C2
:105010004C10BDF84C10ADF84C10BDF84C10218070
:10502000DF21ADF84C10BDF84C10ADF84C10BDF8B8
:105030004C1029801021ADF84C10BDF84C10ADF883
:105040004C10BDF84C102180C421ADF84C10BDF8B7
:105050004C10ADF84C10BDF84C1029808F21ADF8E4
:105060004C10BDF84C10ADF84C10BDF84C10218020
:10507000C621ADF84C10BDF84C10ADF84C10BDF881
:105080004C1029803946ADF84C70BDF84C20ADF875
:105090004C20BDF84C202280E222ADF84C20BDF817
:1050A0004C00ADF84C00BDF84C002080ADF84C2011
:1050B000BDF84C00ADF84C00BDF84C002080ADF8B8
:1050C0004C20BDF84C00ADF84C00BDF84C002080E1
:1050D000BF20ADF84C00BDF84C00ADF84C00BDF859
:1050E0004C002880AA20ADF84C00BDF84C00ADF86B
:1050F0004C00BDF84C002080B020ADF84C00BDF84D
:105100004C00ADF84C00BDF84C0028800D20ADF8E7
:105110004C00BDF84C00ADF84C00BDF84C002080B0
:10512000ADF84C10BDF84C00ADF84C00BDF84C008B
:1051300020800D20ADF84C00BDF84C00ADF84C00BF
:10514000BDF84C002080ADF84C10BDF84C00ADF817
:105150004C00BDF84C0020801120ADF84C00BDF88B
:105160004C00ADF84C00BDF84C002080ADF84C1060
:10517000BDF84C00ADF84C00BDF84C002080192063
:10518000ADF84C00BDF84C00ADF84C00BDF84C003B
:105190002080ADF84C10BDF84C00ADF84C00BDF8C7
:1051A0004C002080ADF84C30BDF84C00ADF84C0000
:1051B000BDF84C002080ADF84C10BDF84C00ADF8A7
:1051C0004C00BDF84C0020802D20ADF84C00BDF8FF
:1051D0004C00ADF84C00BDF84C002080ADF84C10F0
:1051E000BDF84C00ADF84C00BDF84C0020803D20CF
:1051F000ADF84C00BDF84C00ADF84C00BDF84C00CB
:105200002080ADF84C10BDF84C00ADF84C00BDF856
:105210004C0020805D22ADF84C20BDF84C00ADF86C
:105220004C00BDF84C002080ADF84C10BDF84C008F
:10523000ADF84C00BDF84C002080ADF84C20BDF816
:105240004C00ADF84C00BDF84C002080ADF84C107F
:10525000BDF84C00ADF84C00BDF84C002080ADF816
:105260004CC0BDF84C00ADF84C00BDF84C00288097
:105270008020ADF84C00BDF84C00ADF84C00BDF8F6
:105280004C002080ADF84C10BDF84C00ADF84C003F
:10529000BDF84C0020804FF08B0CADF84CC0BDF831
:1052A0004C00ADF84C00BDF84C002080ADF84C101F
:1052B000BDF84C00ADF84C00BDF84C00208096279E
:1052C000ADF84C70BDF84C00ADF84C00BDF84C008A
:1052D0002080ADF84C10BDF84C00ADF84C00BDF886
:1052E0004C002080B220ADF84C00BDF84C00ADF869
:1052F0004C00BDF84C002880ADF84C10BDF84C00B7
:10530000ADF84C00BDF84C002080ADF84C10BDF855
:105310004C00ADF84C00BDF84C2020462280022302
:10532000ADF84C30BDF84C20ADF84C20BDF84C2009
:105330002280ADF84C10BDF84C20ADF84C20BDF8E3
:105340004C202280ADF84C80BDF84C20ADF84C20AC
:10535000BDF84C200280ADF84C10BDF84C20ADF8E3
:105360004C20BDF84C200280B322ADF84C20BDF893
:105370004C20ADF84C20BDF84C202A80ADF84C10E4
:10538000BDF84C20ADF84C20BDF84C200280ADF8A3
:105390004C10BDF84C20ADF84C20BDF84C200280DC
:1053A000ADF84C10BDF84C20ADF84C20BDF84C20A9
:1053B0000280ADF84C10BDF84C20ADF84C20BDF883
:1053C0004C200280ADF84C10BDF84C20ADF84C20BC
:1053D000BDF84C200280ADF84C10BDF84C20ADF863
:1053E0004C20BDF84C200280ADF84C10BDF84C208C
:1053F000ADF84C20BDF84C200280ADF84C10BDF843
:105400004C20ADF84C20BDF84C200280ADF84C107B
:10541000BDF84C20ADF84C20BDF84C200280ADF812
:105420004C10BDF84C20ADF84C20BDF84C2002804B
:10543000ADF84C10BDF84C20ADF84C20BDF84C2018
:105440000280ADF84C10BDF84C20ADF84C20BDF8F2
:105450004C200280ADF84C10BDF84C20ADF84C202B
:10546000BDF84C200280ADF84C10BDF84C20ADF8D2
:105470004C20BDF84C200280ADF84C10BDF84C20FB
:10548000ADF84C20BDF84C200280ADF84C10BDF8B2
:105490004C20ADF84C20BDF84C200280ADF84C10EB
:1054A000BDF84C20ADF84C20BDF84C200280ADF882
:1054B0004C10BDF84C20ADF84C20BDF84C200280BB
:1054C000ADF84C10BDF84C20ADF84C20BDF84C2088
:1054D0000280ADF84C10BDF84C20ADF84C20BDF862
:1054E0004C200280ADF84C10BDF84C20ADF84C209B
:1054F000BDF84C200280ADF84C10BDF84C20ADF842
:105500004C20BDF84C200280ADF84C10BDF84C206A
:10551000ADF84C20BDF84C200280ADF84C10BDF821
:105520004C20ADF84C20BDF84C200280B422ADF8E0
:105530004C20BDF84C20ADF84C20BDF84C202A8002
:105540008B22ADF84C20BDF84C20ADF84C20BDF8B6
:105550004C200280ADF84C10BDF84C20ADF84C202A
:10556000BDF84C200280ADF84C70BDF84C20ADF871
:105570004C20BDF84C200280ADF84C10BDF84C20FA
:10558000ADF84C20BDF84C200280A122ADF84C2093
:10559000BDF84C20ADF84C20BDF84C200280ADF891
:1055A0004C10BDF84C20ADF84C20BDF84C200280CA
:1055B000B522ADF84C20BDF84C20ADF84C20BDF81C
:1055C0004C202A80ADF84C30BDF84C20ADF84C2072
:1055D000BDF84C200280ADF84C10BDF84C20ADF861
:1055E0004C20BDF84C200280ADF84C80BDF84C201A
:1055F000ADF84C20BDF84C200280ADF84C10BDF841
:105600004C20ADF84C20BDF84C2002807246ADF81D
:105610004CE0BDF84C30ADF84C30BDF84C30038058
:10562000ADF84C10BDF84C30ADF84C30BDF84C30F6
:105630000380B623ADF84C30BDF84C30ADF84C309B
:10564000BDF84C302B80ADF84C10BDF84C30ADF8A7
:105650004C30BDF84C300380ADF84C10BDF84C30E8
:10566000ADF84C30BDF84C300380B723ADF84C306A
:10567000BDF84C30ADF84C30BDF84C302B80ADF857
:105680004C10BDF84C30ADF84C30BDF84C300380B8
:10569000ADF84C10BDF84C30ADF84C30BDF84C3086
:1056A00003803F23ADF84C30BDF84C30ADF84C30A2
:1056B000BDF84C300380ADF84C10BDF84C30ADF85F
:1056C0004C30BDF84C3003805E23ADF84C30BDF853
:1056D0004C30ADF84C30BDF84C300380ADF84C1078
:1056E000BDF84C30ADF84C30BDF84C30038064232D
:1056F000ADF84C30BDF84C30ADF84C30BDF84C3006
:105700000380ADF84C10BDF84C30ADF84C30BDF80E
:105710004C3003808C23ADF84C30BDF84C30ADF8E4
:105720004C30BDF84C300380ADF84C10BDF84C3017
:10573000ADF84C30BDF84C300380AC23ADF84C30A4
:10574000BDF84C30ADF84C30BDF84C300380ADF8AE
:105750004C10BDF84C30ADF84C30BDF84C300380E7
:10576000DC23ADF84C30BDF84CC0ADF84CC0BDF8F2
:105770004CC0A0F800C0ADF84C10BDF84CC0ADF85E
:105780004CC0BDF84CC0A0F800C04FF0700CADF894
:105790004CC0BDF84CC0ADF84CC0BDF84CC0A0F832
:1057A00000C0ADF84C10BDF84CC0ADF84CC0BDF811
:1057B0004CC0A0F800C04FF0900CADF84CC0BDF844
:1057C0004CC0ADF84CC0BDF84CC0A0F800C0ADF85E
:1057D0004C10BDF84CC0ADF84CC0BDF84CC0A0F8A2
:1057E00000C04FF0EB0CADF84CC0BDF84CC0ADF8AC
:1057F0004CC0BDF84CC0A0F800C0ADF84C10BDF8CE
:105800004CC0ADF84CC0BDF84CC0A0F800C0ADF81D
:105810004C30BDF84C30ADF84C30BDF84C30038006
:10582000ADF84C10BDF84C30ADF84C30BDF84C30F4
:105830000380B823ADF84C30BDF84C30ADF84C3097
:10584000BDF84C302B80ADF84C10BDF84C30ADF8A5
:105850004C30BDF84C300380ADF84C10BDF84C30E6
:10586000ADF84C30BDF84C300380ADF84C10BDF8AD
:105870004C30ADF84C30BDF84C300380ADF84C10D6
:10588000BDF84C30ADF84C30BDF84C300380ADF86D
:105890004C10BDF84C30ADF84C30BDF84C300380A6
:1058A000ADF84C10BDF84C30ADF84C30BDF84C3074
:1058B0000380ADF84C10BDF84C30ADF84C30BDF85D
:1058C0004C300380ADF84C10BDF84C30ADF84C3086
:1058D000BDF84C300380BA23ADF84C30BDF84C30E5
:1058E000ADF84C30BDF84C302B802424ADF84C4042
:1058F000BDF84C30ADF84C30BDF84C300380ADF8FD
:105900004C10BDF84C30ADF84C30BDF84C30038035
:10591000ADF84C10BDF84C30ADF84C30BDF84C3003
:105920000380ADF84C10BDF84C30ADF84C30BDF8EC
:105930004C300380C123ADF84C30BDF84C30ADF88D
:105940004C30BDF84C302B802023ADF84C30BDF8E6
:105950004C30ADF84C30BDF84C300380ADF84C10F5
:10596000BDF84C30ADF84C30BDF84C3003805423BA
:10597000ADF84C30BDF84C30ADF84C30BDF84C3083
:105980000380ADF84C10BDF84C30ADF84C30BDF88C
:105990004C300380FF23ADF84C30BDF84C30ADF8EF
:1059A0004C30BDF84C300380ADF84C10BDF84C3095
:1059B000ADF84C30BDF84C3003804FF0C20EADF85E
:1059C0004CE0BDF84C30ADF84C30BDF84C302B807D
:1059D0000A23ADF84C30BDF84C30ADF84C30BDF872
:1059E0004C300380ADF84C10BDF84C30ADF84C3065
:1059F000BDF84C300380ADF84C20BDF84C20ADF81C
:105A00004C20BDF84C200280ADF84C10BDF84C2065
:105A1000ADF84C20BDF84C200280C322ADF84C20DC
:105A2000BDF84C20ADF84C20BDF84C202A803C231A
:105A3000ADF84C30BDF84C20ADF84C20BDF84C20F2
:105A40000280ADF84C10BDF84C20ADF84C20BDF8EC
:105A50004C2002803A22ADF84C20BDF84C20ADF825
:105A60004C20BDF84C200280ADF84C10BDF84C2005
:105A7000ADF84C20BDF84C2002803922ADF84C2006
:105A8000BDF84C20ADF84C20BDF84C200280ADF89C
:105A90004C10BDF84C20ADF84C20BDF84C200280D5
:105AA0003722ADF84C20BDF84C20ADF84C20BDF8A5
:105AB0004C200280ADF84C10BDF84C20ADF84C20C5
:105AC000BDF84C200280ADF84C30BDF84C20ADF84C
:105AD0004C20BDF84C200280ADF84C10BDF84C2095
